{
  "_format": "hh-sol-artifact-1",
  "contractName": "DegenToken",
  "sourceName": "contracts/DegenToken.sol",
  "abi": [
    {
      "inputs": [],
      "stateMutability": "nonpayable",
      "type": "constructor"
    },
    {
      "anonymous": false,
      "inputs": [
        {
          "indexed": true,
          "internalType": "address",
          "name": "owner",
          "type": "address"
        },
        {
          "indexed": true,
          "internalType": "address",
          "name": "spender",
          "type": "address"
        },
        {
          "indexed": false,
          "internalType": "uint256",
          "name": "value",
          "type": "uint256"
        }
      ],
      "name": "Approval",
      "type": "event"
    },
    {
      "anonymous": false,
      "inputs": [
        {
          "indexed": true,
          "internalType": "address",
          "name": "previousOwner",
          "type": "address"
        },
        {
          "indexed": true,
          "internalType": "address",
          "name": "newOwner",
          "type": "address"
        }
      ],
      "name": "OwnershipTransferred",
      "type": "event"
    },
    {
      "anonymous": false,
      "inputs": [
        {
          "indexed": true,
          "internalType": "address",
          "name": "from",
          "type": "address"
        },
        {
          "indexed": true,
          "internalType": "address",
          "name": "to",
          "type": "address"
        },
        {
          "indexed": false,
          "internalType": "uint256",
          "name": "value",
          "type": "uint256"
        }
      ],
      "name": "Transfer",
      "type": "event"
    },
    {
      "inputs": [],
      "name": "RedemptionItems",
      "outputs": [
        {
          "internalType": "string",
          "name": "",
          "type": "string"
        }
      ],
      "stateMutability": "pure",
      "type": "function"
    },
    {
      "inputs": [
        {
          "internalType": "address",
          "name": "owner",
          "type": "address"
        },
        {
          "internalType": "address",
          "name": "spender",
          "type": "address"
        }
      ],
      "name": "allowance",
      "outputs": [
        {
          "internalType": "uint256",
          "name": "",
          "type": "uint256"
        }
      ],
      "stateMutability": "view",
      "type": "function"
    },
    {
      "inputs": [
        {
          "internalType": "address",
          "name": "spender",
          "type": "address"
        },
        {
          "internalType": "uint256",
          "name": "amount",
          "type": "uint256"
        }
      ],
      "name": "approve",
      "outputs": [
        {
          "internalType": "bool",
          "name": "",
          "type": "bool"
        }
      ],
      "stateMutability": "nonpayable",
      "type": "function"
    },
    {
      "inputs": [
        {
          "internalType": "address",
          "name": "account",
          "type": "address"
        }
      ],
      "name": "balanceOf",
      "outputs": [
        {
          "internalType": "uint256",
          "name": "",
          "type": "uint256"
        }
      ],
      "stateMutability": "view",
      "type": "function"
    },
    {
      "inputs": [
        {
          "internalType": "uint256",
          "name": "amount",
          "type": "uint256"
        }
      ],
      "name": "burn",
      "outputs": [],
      "stateMutability": "nonpayable",
      "type": "function"
    },
    {
      "inputs": [
        {
          "internalType": "address",
          "name": "account",
          "type": "address"
        },
        {
          "internalType": "uint256",
          "name": "amount",
          "type": "uint256"
        }
      ],
      "name": "burnFrom",
      "outputs": [],
      "stateMutability": "nonpayable",
      "type": "function"
    },
    {
      "inputs": [
        {
          "internalType": "uint256",
          "name": "amount",
          "type": "uint256"
        }
      ],
      "name": "burnTokens",
      "outputs": [],
      "stateMutability": "nonpayable",
      "type": "function"
    },
    {
      "inputs": [],
      "name": "checkBalance",
      "outputs": [
        {
          "internalType": "uint256",
          "name": "",
          "type": "uint256"
        }
      ],
      "stateMutability": "view",
      "type": "function"
    },
    {
      "inputs": [],
      "name": "decimals",
      "outputs": [
        {
          "internalType": "uint8",
          "name": "",
          "type": "uint8"
        }
      ],
      "stateMutability": "pure",
      "type": "function"
    },
    {
      "inputs": [
        {
          "internalType": "address",
          "name": "spender",
          "type": "address"
        },
        {
          "internalType": "uint256",
          "name": "subtractedValue",
          "type": "uint256"
        }
      ],
      "name": "decreaseAllowance",
      "outputs": [
        {
          "internalType": "bool",
          "name": "",
          "type": "bool"
        }
      ],
      "stateMutability": "nonpayable",
      "type": "function"
    },
    {
      "inputs": [
        {
          "internalType": "uint256",
          "name": "itemId",
          "type": "uint256"
        }
      ],
      "name": "getItemName",
      "outputs": [
        {
          "internalType": "string",
          "name": "",
          "type": "string"
        }
      ],
      "stateMutability": "view",
      "type": "function"
    },
    {
      "inputs": [
        {
          "internalType": "address",
          "name": "user",
          "type": "address"
        },
        {
          "internalType": "uint256",
          "name": "index",
          "type": "uint256"
        }
      ],
      "name": "getRedeemedItem",
      "outputs": [
        {
          "internalType": "uint256",
          "name": "itemId",
          "type": "uint256"
        },
        {
          "internalType": "uint256",
          "name": "amount",
          "type": "uint256"
        },
        {
          "internalType": "string",
          "name": "name",
          "type": "string"
        }
      ],
      "stateMutability": "view",
      "type": "function"
    },
    {
      "inputs": [
        {
          "internalType": "address",
          "name": "user",
          "type": "address"
        }
      ],
      "name": "getRedeemedItemsCount",
      "outputs": [
        {
          "internalType": "uint256",
          "name": "",
          "type": "uint256"
        }
      ],
      "stateMutability": "view",
      "type": "function"
    },
    {
      "inputs": [
        {
          "internalType": "address",
          "name": "spender",
          "type": "address"
        },
        {
          "internalType": "uint256",
          "name": "addedValue",
          "type": "uint256"
        }
      ],
      "name": "increaseAllowance",
      "outputs": [
        {
          "internalType": "bool",
          "name": "",
          "type": "bool"
        }
      ],
      "stateMutability": "nonpayable",
      "type": "function"
    },
    {
      "inputs": [
        {
          "internalType": "address",
          "name": "to",
          "type": "address"
        },
        {
          "internalType": "uint256",
          "name": "amount",
          "type": "uint256"
        }
      ],
      "name": "mint",
      "outputs": [],
      "stateMutability": "nonpayable",
      "type": "function"
    },
    {
      "inputs": [],
      "name": "name",
      "outputs": [
        {
          "internalType": "string",
          "name": "",
          "type": "string"
        }
      ],
      "stateMutability": "view",
      "type": "function"
    },
    {
      "inputs": [],
      "name": "owner",
      "outputs": [
        {
          "internalType": "address",
          "name": "",
          "type": "address"
        }
      ],
      "stateMutability": "view",
      "type": "function"
    },
    {
      "inputs": [
        {
          "internalType": "uint256",
          "name": "itemId",
          "type": "uint256"
        }
      ],
      "name": "redeemTokens",
      "outputs": [],
      "stateMutability": "payable",
      "type": "function"
    },
    {
      "inputs": [],
      "name": "renounceOwnership",
      "outputs": [],
      "stateMutability": "nonpayable",
      "type": "function"
    },
    {
      "inputs": [],
      "name": "symbol",
      "outputs": [
        {
          "internalType": "string",
          "name": "",
          "type": "string"
        }
      ],
      "stateMutability": "view",
      "type": "function"
    },
    {
      "inputs": [],
      "name": "totalSupply",
      "outputs": [
        {
          "internalType": "uint256",
          "name": "",
          "type": "uint256"
        }
      ],
      "stateMutability": "view",
      "type": "function"
    },
    {
      "inputs": [
        {
          "internalType": "address",
          "name": "to",
          "type": "address"
        },
        {
          "internalType": "uint256",
          "name": "amount",
          "type": "uint256"
        }
      ],
      "name": "transfer",
      "outputs": [
        {
          "internalType": "bool",
          "name": "",
          "type": "bool"
        }
      ],
      "stateMutability": "nonpayable",
      "type": "function"
    },
    {
      "inputs": [
        {
          "internalType": "address",
          "name": "from",
          "type": "address"
        },
        {
          "internalType": "address",
          "name": "to",
          "type": "address"
        },
        {
          "internalType": "uint256",
          "name": "amount",
          "type": "uint256"
        }
      ],
      "name": "transferFrom",
      "outputs": [
        {
          "internalType": "bool",
          "name": "",
          "type": "bool"
        }
      ],
      "stateMutability": "nonpayable",
      "type": "function"
    },
    {
      "inputs": [
        {
          "internalType": "address",
          "name": "newOwner",
          "type": "address"
        }
      ],
      "name": "transferOwnership",
      "outputs": [],
      "stateMutability": "nonpayable",
      "type": "function"
    },
    {
      "inputs": [
        {
          "internalType": "address",
          "name": "_receiver",
          "type": "address"
        },
        {
          "internalType": "uint256",
          "name": "amount",
          "type": "uint256"
        }
      ],
      "name": "transferTokens",
      "outputs": [],
      "stateMutability": "nonpayable",
      "type": "function"
    }
  ],
  "bytecode": "0x60806040523480156200001157600080fd5b506040518060400160405280600581526020017f446567656e0000000000000000000000000000000000000000000000000000008152506040518060400160405280600381526020017f44474e000000000000000000000000000000000000000000000000000000000081525081600390816200008f919062000576565b508060049081620000a1919062000576565b505050620000c4620000b86200022e60201b60201c565b6200023660201b60201c565b6040518060400160405280600c81526020017f5370616365205453686972740000000000000000000000000000000000000000815250600760006001815260200190815260200160002090816200011c919062000576565b506040518060400160405280600581526020017f44506173730000000000000000000000000000000000000000000000000000008152506007600060028152602001908152602001600020908162000175919062000576565b506040518060400160405280600481526020017f444375700000000000000000000000000000000000000000000000000000000081525060076000600381526020019081526020016000209081620001ce919062000576565b506040518060400160405280600781526020017f44486f6f646965000000000000000000000000000000000000000000000000008152506007600060048152602001908152602001600020908162000227919062000576565b506200065d565b600033905090565b6000600560009054906101000a900473ffffffffffffffffffffffffffffffffffffffff16905081600560006101000a81548173ffffffffffffffffffffffffffffffffffffffff021916908373ffffffffffffffffffffffffffffffffffffffff1602179055508173ffffffffffffffffffffffffffffffffffffffff168173ffffffffffffffffffffffffffffffffffffffff167f8be0079c531659141344cd1fd0a4f28419497f9722a3daafe3b4186f6b6457e060405160405180910390a35050565b600081519050919050565b7f4e487b7100000000000000000000000000000000000000000000000000000000600052604160045260246000fd5b7f4e487b7100000000000000000000000000000000000000000000000000000000600052602260045260246000fd5b600060028204905060018216806200037e57607f821691505b60208210810362000394576200039362000336565b5b50919050565b60008190508160005260206000209050919050565b60006020601f8301049050919050565b600082821b905092915050565b600060088302620003fe7fffffffffffffffffffffffffffffffffffffffffffffffffffffffffffffffff82620003bf565b6200040a8683620003bf565b95508019841693508086168417925050509392505050565b6000819050919050565b6000819050919050565b600062000457620004516200044b8462000422565b6200042c565b62000422565b9050919050565b6000819050919050565b620004738362000436565b6200048b62000482826200045e565b848454620003cc565b825550505050565b600090565b620004a262000493565b620004af81848462000468565b505050565b5b81811015620004d757620004cb60008262000498565b600181019050620004b5565b5050565b601f8211156200052657620004f0816200039a565b620004fb84620003af565b810160208510156200050b578190505b620005236200051a85620003af565b830182620004b4565b50505b505050565b600082821c905092915050565b60006200054b600019846008026200052b565b1980831691505092915050565b600062000566838362000538565b9150826002028217905092915050565b6200058182620002fc565b67ffffffffffffffff8111156200059d576200059c62000307565b5b620005a9825462000365565b620005b6828285620004db565b600060209050601f831160018114620005ee5760008415620005d9578287015190505b620005e5858262000558565b86555062000655565b601f198416620005fe866200039a565b60005b82811015620006285784890151825560018201915060208501945060208101905062000601565b8683101562000648578489015162000644601f89168262000538565b8355505b6001600288020188555050505b505050505050565b612938806200066d6000396000f3fe6080604052600436106101665760003560e01c80638da5cb5b116100d1578063bec3fa171161008a578063dab7571e11610064578063dab7571e14610543578063dd62ed3e14610582578063e22c9ffd146105bf578063f2fde38b146105fc57610166565b8063bec3fa17146104b2578063c71daccb146104db578063d9561a911461050657610166565b80638da5cb5b1461039b57806395d89b41146103c6578063a457c2d7146103f1578063a6e158f81461042e578063a9059cbb1461044a578063b61b38711461048757610166565b806340c10f191161012357806340c10f19146102a357806342966c68146102cc5780636d1b229d146102f557806370a082311461031e578063715018a61461035b57806379cc67901461037257610166565b806306fdde031461016b578063095ea7b31461019657806318160ddd146101d357806323b872dd146101fe578063313ce5671461023b5780633950935114610266575b600080fd5b34801561017757600080fd5b50610180610625565b60405161018d91906119f9565b60405180910390f35b3480156101a257600080fd5b506101bd60048036038101906101b89190611ab4565b6106b7565b6040516101ca9190611b0f565b60405180910390f35b3480156101df57600080fd5b506101e86106da565b6040516101f59190611b39565b60405180910390f35b34801561020a57600080fd5b5061022560048036038101906102209190611b54565b6106e4565b6040516102329190611b0f565b60405180910390f35b34801561024757600080fd5b50610250610713565b60405161025d9190611bc3565b60405180910390f35b34801561027257600080fd5b5061028d60048036038101906102889190611ab4565b610718565b60405161029a9190611b0f565b60405180910390f35b3480156102af57600080fd5b506102ca60048036038101906102c59190611ab4565b61074f565b005b3480156102d857600080fd5b506102f360048036038101906102ee9190611bde565b610765565b005b34801561030157600080fd5b5061031c60048036038101906103179190611bde565b610779565b005b34801561032a57600080fd5b5061034560048036038101906103409190611c0b565b6107d1565b6040516103529190611b39565b60405180910390f35b34801561036757600080fd5b50610370610819565b005b34801561037e57600080fd5b5061039960048036038101906103949190611ab4565b61082d565b005b3480156103a757600080fd5b506103b061084d565b6040516103bd9190611c47565b60405180910390f35b3480156103d257600080fd5b506103db610877565b6040516103e891906119f9565b60405180910390f35b3480156103fd57600080fd5b5061041860048036038101906104139190611ab4565b610909565b6040516104259190611b0f565b60405180910390f35b61044860048036038101906104439190611bde565b610980565b005b34801561045657600080fd5b50610471600480360381019061046c9190611ab4565b610bb7565b60405161047e9190611b0f565b60405180910390f35b34801561049357600080fd5b5061049c610bda565b6040516104a991906119f9565b60405180910390f35b3480156104be57600080fd5b506104d960048036038101906104d49190611ab4565b610bfa565b005b3480156104e757600080fd5b506104f0610c60565b6040516104fd9190611b39565b60405180910390f35b34801561051257600080fd5b5061052d60048036038101906105289190611bde565b610c70565b60405161053a91906119f9565b60405180910390f35b34801561054f57600080fd5b5061056a60048036038101906105659190611ab4565b610d15565b60405161057993929190611c62565b60405180910390f35b34801561058e57600080fd5b506105a960048036038101906105a49190611ca0565b610ecf565b6040516105b69190611b39565b60405180910390f35b3480156105cb57600080fd5b506105e660048036038101906105e19190611c0b565b610f56565b6040516105f39190611b39565b60405180910390f35b34801561060857600080fd5b50610623600480360381019061061e9190611c0b565b610fa2565b005b60606003805461063490611d0f565b80601f016020809104026020016040519081016040528092919081815260200182805461066090611d0f565b80156106ad5780601f10610682576101008083540402835291602001916106ad565b820191906000526020600020905b81548152906001019060200180831161069057829003601f168201915b5050505050905090565b6000806106c2611025565b90506106cf81858561102d565b600191505092915050565b6000600254905090565b6000806106ef611025565b90506106fc8582856111f6565b610707858585611282565b60019150509392505050565b600090565b600080610723611025565b90506107448185856107358589610ecf565b61073f9190611d6f565b61102d565b600191505092915050565b6107576114f8565b6107618282611576565b5050565b610776610770611025565b826116cc565b50565b80610783336107d1565b10156107c4576040517f08c379a00000000000000000000000000000000000000000000000000000000081526004016107bb90611def565b60405180910390fd5b6107ce33826116cc565b50565b60008060008373ffffffffffffffffffffffffffffffffffffffff1673ffffffffffffffffffffffffffffffffffffffff168152602001908152602001600020549050919050565b6108216114f8565b61082b6000611899565b565b61083f82610839611025565b836111f6565b61084982826116cc565b5050565b6000600560009054906101000a900473ffffffffffffffffffffffffffffffffffffffff16905090565b60606004805461088690611d0f565b80601f01602080910402602001604051908101604052809291908181526020018280546108b290611d0f565b80156108ff5780601f106108d4576101008083540402835291602001916108ff565b820191906000526020600020905b8154815290600101906020018083116108e257829003601f168201915b5050505050905090565b600080610914611025565b905060006109228286610ecf565b905083811015610967576040517f08c379a000000000000000000000000000000000000000000000000000000000815260040161095e90611e81565b60405180910390fd5b610974828686840361102d565b60019250505092915050565b60048111156109c4576040517f08c379a00000000000000000000000000000000000000000000000000000000081526004016109bb90611f13565b60405180910390fd5b6000600182036109d75760459050610a00565b600282036109e857606390506109ff565b600382036109f957604b90506109fe565b60c790505b5b5b80610a0a336107d1565b1015610a4b576040517f08c379a0000000000000000000000000000000000000000000000000000000008152600401610a4290611f7f565b60405180910390fd5b610a5533826106b7565b50610a6833610a6261084d565b836106e4565b50600660003373ffffffffffffffffffffffffffffffffffffffff1673ffffffffffffffffffffffffffffffffffffffff1681526020019081526020016000206040518060600160405280848152602001838152602001600760008681526020019081526020016000208054610add90611d0f565b80601f0160208091040260200160405190810160405280929190818152602001828054610b0990611d0f565b8015610b565780601f10610b2b57610100808354040283529160200191610b56565b820191906000526020600020905b815481529060010190602001808311610b3957829003601f168201915b5050505050815250908060018154018082558091505060019003906000526020600020906003020160009091909190915060008201518160000155602082015181600101556040820151816002019081610bb0919061217a565b5050505050565b600080610bc2611025565b9050610bcf818585611282565b600191505092915050565b60606040518060800160405280604781526020016128bc60479139905090565b80610c04336107d1565b1015610c45576040517f08c379a0000000000000000000000000000000000000000000000000000000008152600401610c3c90611def565b60405180910390fd5b610c4f33826106b7565b50610c5b3383836106e4565b505050565b6000610c6b336107d1565b905090565b6060600760008381526020019081526020016000208054610c9090611d0f565b80601f0160208091040260200160405190810160405280929190818152602001828054610cbc90611d0f565b8015610d095780601f10610cde57610100808354040283529160200191610d09565b820191906000526020600020905b815481529060010190602001808311610cec57829003601f168201915b50505050509050919050565b6000806060600660008673ffffffffffffffffffffffffffffffffffffffff1673ffffffffffffffffffffffffffffffffffffffff168152602001908152602001600020805490508410610d9e576040517f08c379a0000000000000000000000000000000000000000000000000000000008152600401610d9590612298565b60405180910390fd5b6000600660008773ffffffffffffffffffffffffffffffffffffffff1673ffffffffffffffffffffffffffffffffffffffff1681526020019081526020016000208581548110610df157610df06122b8565b5b90600052602060002090600302016040518060600160405290816000820154815260200160018201548152602001600282018054610e2e90611d0f565b80601f0160208091040260200160405190810160405280929190818152602001828054610e5a90611d0f565b8015610ea75780601f10610e7c57610100808354040283529160200191610ea7565b820191906000526020600020905b815481529060010190602001808311610e8a57829003601f168201915b5050505050815250509050806000015181602001518260400151935093509350509250925092565b6000600160008473ffffffffffffffffffffffffffffffffffffffff1673ffffffffffffffffffffffffffffffffffffffff16815260200190815260200160002060008373ffffffffffffffffffffffffffffffffffffffff1673ffffffffffffffffffffffffffffffffffffffff16815260200190815260200160002054905092915050565b6000600660008373ffffffffffffffffffffffffffffffffffffffff1673ffffffffffffffffffffffffffffffffffffffff168152602001908152602001600020805490509050919050565b610faa6114f8565b600073ffffffffffffffffffffffffffffffffffffffff168173ffffffffffffffffffffffffffffffffffffffff1603611019576040517f08c379a000000000000000000000000000000000000000000000000000000000815260040161101090612359565b60405180910390fd5b61102281611899565b50565b600033905090565b600073ffffffffffffffffffffffffffffffffffffffff168373ffffffffffffffffffffffffffffffffffffffff160361109c576040517f08c379a0000000000000000000000000000000000000000000000000000000008152600401611093906123eb565b60405180910390fd5b600073ffffffffffffffffffffffffffffffffffffffff168273ffffffffffffffffffffffffffffffffffffffff160361110b576040517f08c379a00000000000000000000000000000000000000000000000000000000081526004016111029061247d565b60405180910390fd5b80600160008573ffffffffffffffffffffffffffffffffffffffff1673ffffffffffffffffffffffffffffffffffffffff16815260200190815260200160002060008473ffffffffffffffffffffffffffffffffffffffff1673ffffffffffffffffffffffffffffffffffffffff168152602001908152602001600020819055508173ffffffffffffffffffffffffffffffffffffffff168373ffffffffffffffffffffffffffffffffffffffff167f8c5be1e5ebec7d5bd14f71427d1e84f3dd0314c0f7b2291e5b200ac8c7c3b925836040516111e99190611b39565b60405180910390a3505050565b60006112028484610ecf565b90507fffffffffffffffffffffffffffffffffffffffffffffffffffffffffffffffff811461127c578181101561126e576040517f08c379a0000000000000000000000000000000000000000000000000000000008152600401611265906124e9565b60405180910390fd5b61127b848484840361102d565b5b50505050565b600073ffffffffffffffffffffffffffffffffffffffff168373ffffffffffffffffffffffffffffffffffffffff16036112f1576040517f08c379a00000000000000000000000000000000000000000000000000000000081526004016112e89061257b565b60405180910390fd5b600073ffffffffffffffffffffffffffffffffffffffff168273ffffffffffffffffffffffffffffffffffffffff1603611360576040517f08c379a00000000000000000000000000000000000000000000000000000000081526004016113579061260d565b60405180910390fd5b61136b83838361195f565b60008060008573ffffffffffffffffffffffffffffffffffffffff1673ffffffffffffffffffffffffffffffffffffffff168152602001908152602001600020549050818110156113f1576040517f08c379a00000000000000000000000000000000000000000000000000000000081526004016113e89061269f565b60405180910390fd5b8181036000808673ffffffffffffffffffffffffffffffffffffffff1673ffffffffffffffffffffffffffffffffffffffff16815260200190815260200160002081905550816000808573ffffffffffffffffffffffffffffffffffffffff1673ffffffffffffffffffffffffffffffffffffffff168152602001908152602001600020600082825401925050819055508273ffffffffffffffffffffffffffffffffffffffff168473ffffffffffffffffffffffffffffffffffffffff167fddf252ad1be2c89b69c2b068fc378daa952ba7f163c4a11628f55a4df523b3ef846040516114df9190611b39565b60405180910390a36114f2848484611964565b50505050565b611500611025565b73ffffffffffffffffffffffffffffffffffffffff1661151e61084d565b73ffffffffffffffffffffffffffffffffffffffff1614611574576040517f08c379a000000000000000000000000000000000000000000000000000000000815260040161156b9061270b565b60405180910390fd5b565b600073ffffffffffffffffffffffffffffffffffffffff168273ffffffffffffffffffffffffffffffffffffffff16036115e5576040517f08c379a00000000000000000000000000000000000000000000000000000000081526004016115dc90612777565b60405180910390fd5b6115f16000838361195f565b80600260008282546116039190611d6f565b92505081905550806000808473ffffffffffffffffffffffffffffffffffffffff1673ffffffffffffffffffffffffffffffffffffffff168152602001908152602001600020600082825401925050819055508173ffffffffffffffffffffffffffffffffffffffff16600073ffffffffffffffffffffffffffffffffffffffff167fddf252ad1be2c89b69c2b068fc378daa952ba7f163c4a11628f55a4df523b3ef836040516116b49190611b39565b60405180910390a36116c860008383611964565b5050565b600073ffffffffffffffffffffffffffffffffffffffff168273ffffffffffffffffffffffffffffffffffffffff160361173b576040517f08c379a000000000000000000000000000000000000000000000000000000000815260040161173290612809565b60405180910390fd5b6117478260008361195f565b60008060008473ffffffffffffffffffffffffffffffffffffffff1673ffffffffffffffffffffffffffffffffffffffff168152602001908152602001600020549050818110156117cd576040517f08c379a00000000000000000000000000000000000000000000000000000000081526004016117c49061289b565b60405180910390fd5b8181036000808573ffffffffffffffffffffffffffffffffffffffff1673ffffffffffffffffffffffffffffffffffffffff1681526020019081526020016000208190555081600260008282540392505081905550600073ffffffffffffffffffffffffffffffffffffffff168373ffffffffffffffffffffffffffffffffffffffff167fddf252ad1be2c89b69c2b068fc378daa952ba7f163c4a11628f55a4df523b3ef846040516118809190611b39565b60405180910390a361189483600084611964565b505050565b6000600560009054906101000a900473ffffffffffffffffffffffffffffffffffffffff16905081600560006101000a81548173ffffffffffffffffffffffffffffffffffffffff021916908373ffffffffffffffffffffffffffffffffffffffff1602179055508173ffffffffffffffffffffffffffffffffffffffff168173ffffffffffffffffffffffffffffffffffffffff167f8be0079c531659141344cd1fd0a4f28419497f9722a3daafe3b4186f6b6457e060405160405180910390a35050565b505050565b505050565b600081519050919050565b600082825260208201905092915050565b60005b838110156119a3578082015181840152602081019050611988565b60008484015250505050565b6000601f19601f8301169050919050565b60006119cb82611969565b6119d58185611974565b93506119e5818560208601611985565b6119ee816119af565b840191505092915050565b60006020820190508181036000830152611a1381846119c0565b905092915050565b600080fd5b600073ffffffffffffffffffffffffffffffffffffffff82169050919050565b6000611a4b82611a20565b9050919050565b611a5b81611a40565b8114611a6657600080fd5b50565b600081359050611a7881611a52565b92915050565b6000819050919050565b611a9181611a7e565b8114611a9c57600080fd5b50565b600081359050611aae81611a88565b92915050565b60008060408385031215611acb57611aca611a1b565b5b6000611ad985828601611a69565b9250506020611aea85828601611a9f565b9150509250929050565b60008115159050919050565b611b0981611af4565b82525050565b6000602082019050611b246000830184611b00565b92915050565b611b3381611a7e565b82525050565b6000602082019050611b4e6000830184611b2a565b92915050565b600080600060608486031215611b6d57611b6c611a1b565b5b6000611b7b86828701611a69565b9350506020611b8c86828701611a69565b9250506040611b9d86828701611a9f565b9150509250925092565b600060ff82169050919050565b611bbd81611ba7565b82525050565b6000602082019050611bd86000830184611bb4565b92915050565b600060208284031215611bf457611bf3611a1b565b5b6000611c0284828501611a9f565b91505092915050565b600060208284031215611c2157611c20611a1b565b5b6000611c2f84828501611a69565b91505092915050565b611c4181611a40565b82525050565b6000602082019050611c5c6000830184611c38565b92915050565b6000606082019050611c776000830186611b2a565b611c846020830185611b2a565b8181036040830152611c9681846119c0565b9050949350505050565b60008060408385031215611cb757611cb6611a1b565b5b6000611cc585828601611a69565b9250506020611cd685828601611a69565b9150509250929050565b7f4e487b7100000000000000000000000000000000000000000000000000000000600052602260045260246000fd5b60006002820490506001821680611d2757607f821691505b602082108103611d3a57611d39611ce0565b5b50919050565b7f4e487b7100000000000000000000000000000000000000000000000000000000600052601160045260246000fd5b6000611d7a82611a7e565b9150611d8583611a7e565b9250828201905080821115611d9d57611d9c611d40565b5b92915050565b7f596f7520646f206e6f74206861766520656e6f75676820546f6b656e73000000600082015250565b6000611dd9601d83611974565b9150611de482611da3565b602082019050919050565b60006020820190508181036000830152611e0881611dcc565b9050919050565b7f45524332303a2064656372656173656420616c6c6f77616e63652062656c6f7760008201527f207a65726f000000000000000000000000000000000000000000000000000000602082015250565b6000611e6b602583611974565b9150611e7682611e0f565b604082019050919050565b60006020820190508181036000830152611e9a81611e5e565b9050919050565b7f496e76616c69642073656c656374696f6e206f66206f7074696f6e732e20506c60008201527f656173652074727920616761696e202100000000000000000000000000000000602082015250565b6000611efd603083611974565b9150611f0882611ea1565b604082019050919050565b60006020820190508181036000830152611f2c81611ef0565b9050919050565b7f496e73756666696369656e742042616c616e6365000000000000000000000000600082015250565b6000611f69601483611974565b9150611f7482611f33565b602082019050919050565b60006020820190508181036000830152611f9881611f5c565b9050919050565b7f4e487b7100000000000000000000000000000000000000000000000000000000600052604160045260246000fd5b60008190508160005260206000209050919050565b60006020601f8301049050919050565b600082821b905092915050565b6000600883026120307fffffffffffffffffffffffffffffffffffffffffffffffffffffffffffffffff82611ff3565b61203a8683611ff3565b95508019841693508086168417925050509392505050565b6000819050919050565b600061207761207261206d84611a7e565b612052565b611a7e565b9050919050565b6000819050919050565b6120918361205c565b6120a561209d8261207e565b848454612000565b825550505050565b600090565b6120ba6120ad565b6120c5818484612088565b505050565b5b818110156120e9576120de6000826120b2565b6001810190506120cb565b5050565b601f82111561212e576120ff81611fce565b61210884611fe3565b81016020851015612117578190505b61212b61212385611fe3565b8301826120ca565b50505b505050565b600082821c905092915050565b600061215160001984600802612133565b1980831691505092915050565b600061216a8383612140565b9150826002028217905092915050565b61218382611969565b67ffffffffffffffff81111561219c5761219b611f9f565b5b6121a68254611d0f565b6121b18282856120ed565b600060209050601f8311600181146121e457600084156121d2578287015190505b6121dc858261215e565b865550612244565b601f1984166121f286611fce565b60005b8281101561221a578489015182556001820191506020850194506020810190506121f5565b868310156122375784890151612233601f891682612140565b8355505b6001600288020188555050505b505050505050565b7f496e76616c696420696e64657800000000000000000000000000000000000000600082015250565b6000612282600d83611974565b915061228d8261224c565b602082019050919050565b600060208201905081810360008301526122b181612275565b9050919050565b7f4e487b7100000000000000000000000000000000000000000000000000000000600052603260045260246000fd5b7f4f776e61626c653a206e6577206f776e657220697320746865207a65726f206160008201527f6464726573730000000000000000000000000000000000000000000000000000602082015250565b6000612343602683611974565b915061234e826122e7565b604082019050919050565b6000602082019050818103600083015261237281612336565b9050919050565b7f45524332303a20617070726f76652066726f6d20746865207a65726f2061646460008201527f7265737300000000000000000000000000000000000000000000000000000000602082015250565b60006123d5602483611974565b91506123e082612379565b604082019050919050565b60006020820190508181036000830152612404816123c8565b9050919050565b7f45524332303a20617070726f766520746f20746865207a65726f20616464726560008201527f7373000000000000000000000000000000000000000000000000000000000000602082015250565b6000612467602283611974565b91506124728261240b565b604082019050919050565b600060208201905081810360008301526124968161245a565b9050919050565b7f45524332303a20696e73756666696369656e7420616c6c6f77616e6365000000600082015250565b60006124d3601d83611974565b91506124de8261249d565b602082019050919050565b60006020820190508181036000830152612502816124c6565b9050919050565b7f45524332303a207472616e736665722066726f6d20746865207a65726f20616460008201527f6472657373000000000000000000000000000000000000000000000000000000602082015250565b6000612565602583611974565b915061257082612509565b604082019050919050565b6000602082019050818103600083015261259481612558565b9050919050565b7f45524332303a207472616e7366657220746f20746865207a65726f206164647260008201527f6573730000000000000000000000000000000000000000000000000000000000602082015250565b60006125f7602383611974565b91506126028261259b565b604082019050919050565b60006020820190508181036000830152612626816125ea565b9050919050565b7f45524332303a207472616e7366657220616d6f756e742065786365656473206260008201527f616c616e63650000000000000000000000000000000000000000000000000000602082015250565b6000612689602683611974565b91506126948261262d565b604082019050919050565b600060208201905081810360008301526126b88161267c565b9050919050565b7f4f776e61626c653a2063616c6c6572206973206e6f7420746865206f776e6572600082015250565b60006126f5602083611974565b9150612700826126bf565b602082019050919050565b60006020820190508181036000830152612724816126e8565b9050919050565b7f45524332303a206d696e7420746f20746865207a65726f206164647265737300600082015250565b6000612761601f83611974565b915061276c8261272b565b602082019050919050565b6000602082019050818103600083015261279081612754565b9050919050565b7f45524332303a206275726e2066726f6d20746865207a65726f2061646472657360008201527f7300000000000000000000000000000000000000000000000000000000000000602082015250565b60006127f3602183611974565b91506127fe82612797565b604082019050919050565b60006020820190508181036000830152612822816127e6565b9050919050565b7f45524332303a206275726e20616d6f756e7420657863656564732062616c616e60008201527f6365000000000000000000000000000000000000000000000000000000000000602082015250565b6000612885602283611974565b915061289082612829565b604082019050919050565b600060208201905081810360008301526128b481612878565b905091905056fe312e20537061636520545368697274203d203639200a20322e204450617373203d203939202f6e20332e2044437570203d203735202f6e20342e44486f6f646965203d20313939a26469706673582212207db7fd448048aea086b792c37cc5c03190505485cb3ea68404470dace6dc9dc764736f6c63430008120033",
  "linkReferences": {},
  "deployedLinkReferences": {}
}